:020000040800F2
:100000000010002011230008B5220008B7220008C4
:1000100000000000000000000000000000000000E0
:10002000000000000000000000000000B9220008ED
:100030000000000000000000BB220008BD220008F4
:10004000612300080000000061230008612300080C
:100050006123000861230008612300086123000870
:1000600000000000612300086123000861230008EC
:1000700061230008612300086123000800000000DC
:100080006123000800000000000000006123000858
:1000900000000000612300086123000861230008BC
:1000A0000000000061230008000000006123000838
:1000B0000000000000000000000000000000000040
:1000C0000023C25C0133002AFBD1581E7047000098
:1000D00003B47146490840004900095E49008E4456
:1000E00003BC7047002243088B4274D303098B4240
:1000F0005FD3030A8B4244D3030B8B4228D3030CF8
:100100008B420DD3FF22090212BA030C8B4202D399
:100110001212090265D0030B8B4219D300E0090AC1
:10012000C30B8B4201D3CB03C01A5241830B8B42CA
:1001300001D38B03C01A5241430B8B4201D34B03B3
:10014000C01A5241030B8B4201D30B03C01A524118
:10015000C30A8B4201D3CB02C01A5241830A8B429D
:1001600001D38B02C01A5241430A8B4201D34B0286
:10017000C01A5241030A8B4201D30B02C01A5241EA
:10018000CDD2C3098B4201D3CB01C01A524183099E
:100190008B4201D38B01C01A524143098B4201D3D8
:1001A0004B01C01A524103098B4201D30B01C01A03
:1001B0005241C3088B4201D3CB00C01A524183087D
:1001C0008B4201D38B00C01A524143088B4201D3AA
:1001D0004B00C01A5241411A00D20146524110460A
:1001E0007047FFE701B5002000F006F802BDC046E9
:1001F0000029F7D076E770477047C04610B5064C27
:100200002378002B07D1054B002B02D0044800E0D7
:1002100000BF0123237010BD5C000020000000001F
:10022000B02C0008044B10B5002B03D00349044840
:1002300000E000BF10BDC0460000000060000020CC
:10024000B02C000870B586B001AC1422002120004B
:1002500002F0AAF80F4B5A69802189020A435A61B9
:100260005B690B400093009B882676009025ED0586
:1002700000223100280000F0FDFC019601230293CA
:100280000023039304932100280000F02FFC06B004
:1002900070BDC04600100240F0B5D6464F464646F7
:1002A000C0B5A0B0012676426F49704833002222C3
:1002B000804601F0E8FE6E4F0296012399460193B5
:1002C0007F256D44009541227221380000F0E6FF41
:1002D0002A78131149460B4066490BAC200002F006
:1002E00041F82000FFF7ECFE82B2330021004046C7
:1002F00001F0C9FE02964B460193009542227221FD
:10030000380000F0CBFF2A789309500901218A4672
:100310000B409C46584953461840009063462000C5
:1003200002F020F82000FFF7CBFE82B2330021005C
:10033000404601F0A8FE02964B46019300959E228E
:100340007221380000F0AAFF2A78130951460B40A9
:100350004A49200002F006F82000FFF7B1FE82B201
:1003600033002100404601F08EFE02964B46019379
:100370000095A0227221380000F090FF2A784049B1
:10038000200001F0EFFF2000FFF79AFE82B2330059
:100390002100404601F077FE02964B4601930095FE
:1003A000A1227221380000F079FF2A783549200017
:1003B00001F0D8FF2000FFF783FE82B23300210056
:1003C000404601F060FE02964B4601930095C8221C
:1003D0007221380000F062FF2A780F20104005AC2F
:1003E000294B2100E0CBE0C170CB70C1052839D882
:1003F000800005ABC35825490BAC200001F0B2FFCB
:100400002000FFF75DFE0126764282B2174D3300D1
:100410002100280001F037FE1548029601230193C0
:100420007F276F4400973E22722100F037FF3A7811
:1004300093081749200001F095FF2000FFF740FEC8
:1004400082B233002100280001F01DFE1149330063
:100450002122280001F017FE20B0E0BCBA46B146C8
:10046000A846F0BD0C4BC6E7E82C00087800002039
:10047000000100200C2D0008382D0008682D000810
:10048000902D0008AC2D0008C82C0008C82D0008CD
:10049000E82D0008102E0008E02C000810B572B6F8
:1004A0008021902000224900C00500F0E3FBFEE718
:1004B00010B51248124B0360124B43600023836057
:1004C0000122C260036143618361C361036200F082
:1004D000ABFD00280CD10948002100F0AFFF002837
:1004E00008D10648002100F0D5FF002804D110BD36
:1004F000FFF7D4FFFFF7D2FFFFF7D0FF0001002086
:10050000005400402B1D200010B50B480B4B03601E
:10051000E1235B02436000238360C36003610C221C
:1005200042618361C3610362436201F08DFE002872
:1005300000D110BDFFF7B2FF780000200038014065
:1005400010B594B008AC30220021200001F02CFF3F
:100550001022002104A801F027FF10220021684684
:1005600001F022FF02230893013B0B930F330C93FE
:10057000200001F039F8002817D104A807230493BC
:10058000002343608360C360002101F0A5FA0028C6
:100590000DD168462123009300230293039301F0B9
:1005A0004BFB002805D114B010BDFFF777FFFFF714
:1005B00075FFFFF773FFF0B589B005000491059250
:1005C0001E00172702AB9C46674400233B7000F0D7
:1005D00021FA040001235B42029302330193009746
:1005E00096227221280000F059FE002802D0012036
:1005F00009B0F0BD049A3A700122524202920232CE
:10060000019200970123C3327221280000F07AFD85
:10061000002836D100F0FEF9001BB04218D20123A9
:100620005B42029302330193163302AA9446634459
:100630000093012396227221280000F02FFE00284B
:1006400021D1172302AA9446634419784907E1D5BA
:1006500000F0E0F9001BB04211D201235B4202938B
:100660000233FF330193059B0093012300227E2177
:10067000280000F013FE0028BAD0FFF70FFFFFF7A5
:100680000DFF0120B4E70120B2E7000070B586B08D
:1006900006000D00140017236B44197016226A44DB
:1006A0000021117039480122524202920232019215
:1006B000009301233200723100F024FD002828D17C
:1006C000324801235B4202930233019315336B449A
:1006D000009301233200722100F0E0FD00282CD1AC
:1006E00016236B441B78AB423BD12000FFF7E8FC9C
:1006F0000126764282B2264D33002100280001F007
:10070000C2FC244933000722280001F0BCFC06B0DB
:1007100070BD2000FFF7D4FC0126764282B21C4D4A
:1007200033002100280001F0AEFC1B4933000D22EC
:10073000280001F0A8FCFFF7B1FE2000FFF7C0FC85
:100740000126764282B2124D33002100280001F0CA
:100750009AFC124933000C22280001F094FCFFF7A8
:100760009DFE2000FFF7ACFC0126764282B2084DC8
:1007700033002100280001F086FC094933000D22D6
:10078000280001F080FCFFF789FEC0460001002030
:1007900078000020642E0008342E0008442E000843
:1007A000542E000810B52C4C220002219920FFF78E
:1007B0006DFF22004421A520FFF768FF22004021A1
:1007C000AB20FFF763FF2200FF21D120FFF75EFF80
:1007D00022007D21FA20FFF759FF204C2200A8219A
:1007E0004920FFF753FF220000214C20FFF74EFF66
:1007F0001B4A80214B20FFF749FF1A4A1021DE20B7
:10080000FFF744FF184A00211520FFF73FFF174A62
:1008100060211620FFF73AFF154A46211820FFF7FE
:1008200035FF144A60211720FFF730FF124A80215C
:100830004020FFF72BFF114A0221AF20FFF726FFD0
:100840000F4A10214420FFF721FF0E4A00215520B6
:10085000FFF71CFF10BDC0466C2E00087C2E000860
:10086000942E0008A42E0008B82E0008C82E0008F8
:10087000E02E0008F02E0008002F00080C2F0008C2
:10088000142F0008282F000810B586B0254A102123
:100890004120FFF7FBFEC82000F0C2F8224A0321E6
:1008A0009820FFF7F3FE214AE0219A20FFF7EEFEA1
:1008B0001F4A30219C20FFF7E9FE1E4A61219D203E
:1008C000FFF7E4FE1C4AA421A220FFF7DFFE1B4A2B
:1008D000A421A320FFF7DAFE194AD021E020FFF778
:1008E000D5FE184A0021F920FFF7D0FE17246C44EA
:1008F000002323701448013B0293023301930094B8
:100900009E22722100F0CAFC2378DB0607D58021E5
:1009100090204900C00500F0B3F906B010BDFFF704
:10092000BDFDC0462C2F0008382F0008402F0008BE
:10093000482F0008502F0008602F0008682F00087B
:10094000702F0008782F00080001002000B5C1B00A
:1009500000F044F8FFF7F4FDC82000F061F8FFF75D
:1009600071FCFFF7A5FDFFF7CFFDFFF78DFFFFF748
:1009700019FF012304485B426A460021FFF71BFE72
:10098000FFF78AFC30BFFDE70001002010B504002E
:100990000F4B1978FA208000FFF7A4FB01000D4BE4
:1009A0001868FFF79FFB00F09DF800280DD1032C7D
:1009B00001D901200AE0013000222100404200F06C
:1009C0008DF8054B1C60002000E0012010BDC046E2
:1009D00000000020080000200400002010B5064A96
:1009E000136810210B4313600320FFF7CFFF00F0C3
:1009F0007BFD002010BDC04600200240034A116864
:100A0000034B1B785B1813607047C04654010020ED
:100A100000000020014B18687047C04654010020B8
:100A200070B50400FFF7F6FF0500631C02D0044B0D
:100A30001B78E418FFF7EEFF401BA042FAD370BD0D
:100A40000000002070B5002811DB8308134DC0336F
:100A50009B005C5903221040C000FC321600864007
:100A6000B44389010A40824022435A5170BD0F238A
:100A70000340083B9B0806339B00094A94466344A5
:100A80005C6803221040C000FC3215008540AC4376
:100A900089010A40824022435A60E7E700E100E012
:100AA00000ED00E0013880235B0498420FD2094A30
:100AB00050600948036A1B021B0AC02109060B4348
:100AC0000362002393600733136000207047012006
:100AD000FCE7C04610E000E000ED00E010B5FFF7D5
:100AE000B1FF10BD10B5FFF7DDFF10BDF0B583B04D
:100AF000002356E086685F000324BC40A643CC6810
:100B0000BC4034438460446894434E6836090122F3
:100B100032409A402243426053E0DE080836B60075
:100B2000375805321A4092000F249440A7430C69AD
:100B3000944022003A43325056E0032600E000265B
:100B4000A64034003C4302329200444E9451444A41
:100B50009768EA433E00AE434C68E40201D53E008C
:100B60002E433F4CA660E7683E0016404C68A40246
:100B700001D53E002E433A4CE66067683E001640C1
:100B80004C68A40301D53E002E43354C66602668B0
:100B900032404C68E40301D52A003243304C2260D5
:100BA00001330C682200DA4056D001229A40250019
:100BB00015401442F4D04E6803243440013C012C0B
:100BC00098D94C6803222240032A08D0C4685E00EA
:100BD0000322B24094438A68B2402243C2604C6808
:100BE00003222240022A98D004685E0003221700E4
:100BF000B740BC434F683A40B240224302604C6861
:100C0000C02292021442CBD0164CA6690122164390
:100C1000A661A46922400192019A9A08941CA4003A
:100C20000E4EA75903241C40A4000F26A640B7432C
:100C30009026F605B04282D00B4EB04208D00B4E43
:100C4000B04207D00A4EB04200D176E7052677E7DA
:100C5000012675E7022673E703B0F0BD00000140EE
:100C60000004014000100240000400480008004851
:100C7000000C0048002A01D0816170478162FCE7C6
:100C8000426913000B401B0491430B43836170477F
:100C9000026893699B0701D50023936203689A69F0
:100CA000D20703D49A6901210A439A617047000070
:100CB00010B58905890D120411431943029B19438C
:100CC00049004908046862685B0D8020C000034049
:100CD000034803439A4313000B43636010BDC046AF
:100CE000FF63FF03F0B5C64600B504000D00170012
:100CF00001688B69102216001E401A4200D175E06F
:100D00001023CB61002398460026206883699B0648
:100D100031D4002E2FD16B1CF7D0FFF77BFEC01B08
:100D2000A84201D8002DF0D121684B688022D20161
:100D300013404222A25CD2B28869000403D5002B82
:100D400001D1202A0ED123689B699B06DDD4FFF7D1
:100D500061FEC01B1928F6D9202342461A4390464B
:100D60000126D2E74A688023DB0113434B60FFF77B
:100D700051FE0700E7E7002E01D12023C3610426BE
:100D8000434633431E00012522689369D90504D5E3
:100D900001210E43FF31D16101255A0506D50822F4
:100DA000164322688021C900D16101259B051FD50A
:100DB00002231E43236880229200DA61012520006D
:100DC000FFF766FF226853680B490B405360636C62
:100DD0003343636441232022E25400232232A3548C
:100DE000023AA354280080BCB846F0BD0025CBE7EA
:100DF000002DF7D0E3E7C04600E800FE70B5040020
:100E00000D00160023689B699B0720D4320029003F
:100E10002000FFF767FF00281BD16B1CF2D0FFF703
:100E2000F9FD801BA84201D8002DEBD123689B69F6
:100E30009B07E7D4636C2022134363644123E2548D
:100E400000232232A354023AA354012000E00020E0
:100E500070BD0120FCE7F0B5D6464F4680B583B0A3
:100E600007000D00160099460A9B9A463B689C694C
:100E70002C40641B63425C410196B44228D1524627
:100E800049463800FFF72EFF002827D14B46013393
:100E9000ECD0FFF7BFFD5346C01A484502D84B4679
:100EA000002BE3D13B689B692B405B1B5A425341AB
:100EB000019A9342DAD17B6C202213437B64412355
:100EC000FA5400232232BB54023ABB54012000E002
:100ED000002003B0C0BCBA46B146F0BD0120F8E71F
:100EE00070B582B0040015001E008023F2B21948CC
:100EF00000905B042000FFF7DBFE079A06992000B4
:100F0000FFF77CFF00281ED1012E0ED12368EDB221
:100F10009D62079B0093069B002280212000FFF723
:100F20009AFF002813D102B070BD23682A0A9A6282
:100F3000079A06992000FFF761FF002805D1236872
:100F4000EDB29D62E5E70120EDE70120EBE701202E
:100F5000E9E7C0460020008070B582B004001500AB
:100F60001E00DAB2184B00930023FFF7A1FE079A88
:100F700006992000FFF742FF00281ED1012E0ED156
:100F80002368EDB29D62079B0093069B00224021DF
:100F90002000FFF760FF002813D102B070BD236866
:100FA0002A0A9A62079A06992000FFF727FF00286D
:100FB00005D12368EDB29D62E5E70120EDE7012050
:100FC000EBE70120E9E7C0460020008070B504008F
:100FD0000D00160003E023689B699B0612D5236869
:100FE0009B699B061BD4320029002000FFF77AFE84
:100FF000002816D1FFF70EFD801BA842EBD8002D6C
:10100000EDD1E8E7636C2022134363644123E2548B
:1010100000232232A354023AA354012000E000200E
:1010200070BD0120FCE7000010B5041E60D0412314
:10103000C35C002B48D041232422E2542268136869
:1010400001218B431360636822682A490B401361B6
:101050002268936828490B409360E368012B39D0DC
:10106000A168226884231B020B439360E368022B70
:1010700037D02268536821490B4053602268516879
:101080001F4B0B4353602268D3681B490B40D3604E
:10109000236962691343A269120221681343CB607A
:1010A000E369216A22680B431360226813680121F7
:1010B0000B4313600023636441221F31A154236357
:1010C0000132A354002010BD40330022C25400F06E
:1010D00023FAB0E7A168226880231B020B439360C8
:1010E000C4E72268516880231B010B435360C5E7A6
:1010F0000120E8E7FFFFFFF0FF7FFFFFFFF7FFFFA3
:1011000000800002F0B587B00400039104920593BB
:101110000CAB20CB1F884123C35C202B00D0AFE059
:10112000002D18D0002F16D04023C35C012B00D116
:10113000A9E040230122C254FFF76CFC0600802185
:1011400000901923012209022000FFF784FE0028E5
:1011500006D0012095E080239B006364012090E08D
:1011600041232122E25401331F32E25400236364FD
:1011700065626785636301960E9B0093059B049AE5
:1011800003992000FFF7ACFE00280ED1638DFF2BE2
:1011900010D9FF2323857F3B002200925B04FF329E
:1011A00003992000FFF784FD20E040230022E25451
:1011B000012066E0628D92B222858023D2B20021A6
:1011C00000919B0403992000FFF772FD0EE0628DF1
:1011D00092B222858023D2B2002100919B04039910
:1011E0002000FFF765FD638D002B32D032000E9991
:1011F0002000FFF703FE002847D1626A23681278B7
:101200009A62636A01336362638D013B9BB26385BB
:10121000238D013B9BB22385628D002AE3D0002BF6
:10122000E1D100960E9B002280212000FFF713FEE3
:1012300000282CD1638DFF2BC9D9FF2323857F3B49
:10124000002200925B04FF3203992000FFF730FD7B
:10125000C9E732000E992000FFF7B8FE002818D128
:1012600023682022DA6121684B680B4D2B404B60CC
:101270004123E25400232232A354023AA35400E053
:10128000022007B0F0BD0220FBE70120F9E70120B2
:10129000F7E70120F5E7C04600E800FEF0B587B0AB
:1012A00004000391049205930CAB20CB1F884123CB
:1012B000C35C202B00D0B1E0002D18D0002F16D039
:1012C0004023C35C012B00D1ABE040230122C25478
:1012D000FFF7A0FB060080210090192301220902DC
:1012E0002000FFF7B8FD002806D0012097E08023FA
:1012F0009B006364012092E041232222E2540133E7
:101300001E32E2540023636465626785636301965D
:101310000E9B0093059B049A03992000FFF71CFE87
:1013200000280ED1638DFF2B10D9012323857F3335
:10133000404A00925B04012203992000FFF7B8FCA9
:1013400020E040230022E254012068E0628D92B246
:1013500022858023D2B2374900919B040399200053
:10136000FFF7A6FC0EE0628D92B222858023D2B2F6
:10137000002100919B0403992000FFF799FC638DE5
:10138000002B34D000960E9B002204212000FFF792
:1013900062FD002847D123685A6A636A1A70636A3B
:1013A00001336362238D013B9BB22385628D013A39
:1013B00092B26285628D002AE1D0002BDFD10096C7
:1013C0000E9B002280212000FFF745FD00282CD134
:1013D000638DFF2BC7D9012323857F330022009221
:1013E0005B04013203992000FFF762FCC7E732007B
:1013F0000E992000FFF7EAFD002818D1236820226B
:10140000DA6121684B680C4D2B404B604123E2545C
:1014100000232232A354023AA35400E0022007B072
:10142000F0BD0220FBE70120F9E70120F7E70120EA
:10143000F5E7C0460024008000E800FEF0B5412337
:10144000C35C202B20D12033C35C012B1ED0402451
:1014500001220255412524234355066833689343EE
:101460003360066833680A4F3B4033600668336870
:101470000B43336001680B6813430B602023435513
:10148000002303550020F0BD0220FCE70220FAE70C
:10149000FFEFFFFFF0B54123C35C202B1ED12033AB
:1014A000C35C012B1CD0402401220255412524237A
:1014B0004355066833689343336006683368094FC1
:1014C0003B4009021943316001680B6813430B600C
:1014D00020234355002303550020F0BD0220FCE7E4
:1014E0000220FAE7FFF0FFFF82B00A4B9969012260
:1014F0001143996199690A400092009ADA69802142
:1015000049050A43DA61DB690B400193019B02B094
:101510007047C0460010024010B588B00400142285
:10152000002103A800F040FF2268134B9A4201D02B
:1015300008B010BD114C63698022920213436361AD
:10154000636913400193019B03A9C023DB0003934C
:1015500012234B600F3BCB6001330B619020C00521
:10156000FFF7C4FAE369802292031343E361E3695E
:1015700013400293029BDBE700540040001002403E
:1015800010B588B004001422002103A800F00CFF5D
:101590002268134B9A4201D008B010BD114B9A69D2
:1015A0008021C9010A439A619A690A400192019A0D
:1015B0005A69802189020A435A615B690B40029390
:1015C000029B03A90C2303930A3B4B600133CB60BE
:1015D000023B0B619020C005FFF788FADCE7C046AC
:1015E000003801400010024070B582B0041E00D1E6
:1015F0002EE20368DB0726D5AE4B5A680C23134056
:10160000042B18D0AB4B5A680C231340082B0ED078
:101610006368012B3CD0002B51D1A64B1A68A64918
:101620000A401A601A68A5490A401A6036E0A14BC0
:101630005B68DB03ECD59F4B1B689B0303D563689A
:10164000002B00D107E223689B0772D5994B5B689A
:101650000C221A425DD0974B5A680C231340082B7A
:1016600053D0E368002B00D185E0924A1368012132
:101670000B431360FFF7CEF905008E4B1B689B07E9
:1016800070D4FFF7C7F9401B0228F6D90320E0E128
:10169000884A116880235B020B4313606368002B48
:1016A00025D0FFF7B7F90500824B1B689B03CAD40E
:1016B000FFF7B0F9401B6428F6D90320C9E1052BD8
:1016C00009D07C4B1A687C490A401A601A687B4929
:1016D0000A401A60E2E7774B19688022D2020A4377
:1016E0001A601968802252020A431A60D6E7FFF78F
:1016F00091F905006F4B1B689B03A4D5FFF78AF98E
:10170000401B6428F6D90320A3E16A4B5B68DB0326
:10171000A7D4684B1B689B0703D5E368012B00D057
:101720009BE164490B68F82293432269D20013437A
:101730000B6023681B0744D5E369002B2ED05D4A5C
:10174000536A01210B435362FFF764F90500594BBB
:101750005B6A9B0735D4FFF75DF9401B0228F6D979
:10176000032076E153490B68F82293432269D200A3
:1017700013430B60DDE74F4A136801218B4313606D
:10178000FFF748F905004B4B1B689B07D1D5FFF7C6
:1017900041F9401B0228F6D903205AE1454A536A11
:1017A00001218B435362FFF735F90500414B5B6A1A
:1017B0009B0706D5FFF72EF9401B0228F6D9032018
:1017C00047E123685B0700D480E03A4BDB69DB002C
:1017D0001DD4384BDA69802149050A43DA61DB6997
:1017E0000B400193019B0125354B1B68DB0510D590
:1017F000A368012B21D0002B36D12E4B1A6A012170
:101800008A431A621A6A03318A431A621AE000256F
:10181000EAE72B4A116880235B000B431360FFF754
:10182000F9F80600264B1B68DB05E1D4FFF7F2F858
:10183000801B6428F6D903200BE11E4A136A01219C
:101840000B431362A368002B24D0FFF7E3F80600D4
:10185000184B1B6A9B0737D4FFF7DCF8801B194B2A
:101860009842F5D90320F4E0052B09D0114B1A6AF0
:1018700001218A431A621A6A03318A431A62E1E734
:101880000C4B1A6A04210A431A621A6A03390A4382
:101890001A62D7E7FFF7BEF80600064B1B6A9B07E4
:1018A00012D5FFF7B7F8801B064B9842F5D90320F5
:1018B000CFE0C04600100240FFFFFEFFFFFFFBFF2E
:1018C0000070004088130000012D33D02368DB0630
:1018D00010D56369012B33D0053351D1654A536B61
:1018E00004218B435363536BF4318B43A169C900CB
:1018F0000B435363236A002B00D1B0E05D4A51686B
:101900000C220A40082A00D18AE0022B4FD0594A03
:10191000136859490B401360FFF77CF80400554BDE
:101920001B689B017AD5FFF775F8001B0228F6D9D2
:1019300003208EE04F4AD36950490B40D361C5E77D
:101940004C4B5A6B04210A435A635A6B03390A43BE
:101950005A63FFF75FF80500464B5B6B9B0706D4A5
:10196000FFF758F8401B0228F6D9032071E04149DF
:101970004B6BF8229343A269D20013434B63B9E740
:101980003C4B5A6B04210A435A635A6B03398A430E
:101990005A63FFF73FF80500364B5B6B9B07A9D5F1
:1019A000FFF738F8401B0228F6D9032051E0314AEE
:1019B000136831490B401360FFF72CF805002D4BDD
:1019C0001B689B0106D5FFF725F8401B0228F6D9B6
:1019D00003203EE0274BDA6A0F218A43E16A0A437B
:1019E000DA625A6826490A40A16A606A01430A43DA
:1019F0005A601968802252040A431A60FFF70AF8F5
:101A000004001C4B1B689B0106D4FFF703F8001B66
:101A10000228F6D903201CE000201AE0002018E07C
:101A2000012B1ED0134B5A68D86A80235B021340E7
:101A3000616A8B4217D10F230340E16A8B4214D1B4
:101A4000F0239B031A40A36A9A4210D1002000E0C1
:101A5000012002B070BD0120FBE70120F9E7002062
:101A6000F7E70120F5E70120F3E70120F1E7012086
:101A7000EFE7C04600100240FFFFFFFEFFFFFFEF51
:101A8000FFFFC2FF10B5104B5A680C231340082B00
:101A900001D00E4810BD910C073319400C48445C2E
:101AA0000949C96A0B400B49C95CD20304D50748F0
:101AB000FEF718FB6043EDE76201121B93019B1ACE
:101AC000DB001B191802E5E70010024000127A0043
:101AD00008300008F82F000870B504000D00002839
:101AE00000D17EE0434B1A68012313408B420AD297
:101AF00040490B68012293432B430B600B681A404B
:101B0000AA4200D06FE023689A070ED55B0705D57F
:101B1000394A5168E023DB000B435360364A53686F
:101B2000F0218B43A1680B4353602368DB072DD55D
:101B30006368012B1ED0022B22D02F4A1268920715
:101B400053D52D494A680320824313434B60FEF767
:101B500061FF0600284B5B680C221A4063689B00FB
:101B60009A4213D0FEF756FF801B244B9842F1D9BE
:101B7000032035E0204A12689203E2D401202FE0CE
:101B80001D4A12689201DCD4012029E0194B1A6821
:101B900001231340AB4209D916490B680122934334
:101BA0002B430B600B681A40AA4220D123685B07C5
:101BB00006D5114A536812490B40E1680B43536044
:101BC000FFF760FF0C4B5A6812090F2313400D4AB0
:101BD000D35CD8400C4B18600320FEF7D7FE0020E2
:101BE00070BD0120FCE70120FAE70120F8E70120A1
:101BF000F6E7C046002002400010024088130000B3
:101C0000FFF8FFFF2030000808000020014B186893
:101C10007047C0460800002010B5FFF7F7FF044BDF
:101C20005A68120A07231340024AD35CD84010BDF9
:101C3000001002401830000870B582B0040003683C
:101C4000DB0339D53E4BDB69DB004CD43C4BDA6916
:101C5000802149050A43DA61DB690B400193019B4E
:101C60000125384B1B68DB053FD5354B1A6AC0236D
:101C70009B00110019401A4215D06368C0229200DF
:101C800013408B420FD02E4B1A6A2F4911401E6A07
:101C90008020400230431862186A2C4E304018628F
:101CA0001962D20735D4264A136A27490B40616866
:101CB0000B431362012D3BD02368DB0706D5204A76
:101CC000136B03218B43A1680B43136323689B06AB
:101CD00033D51B4A136B10218B43E1680B4313630D
:101CE000002002B070BD0025BBE7164A11688023B2
:101CF0005B000B431360FEF78DFE0600114B1B6863
:101D0000DB05B2D4FEF786FE801B6428F6D90320DB
:101D1000E7E7FEF77FFE0600094B1B6A9B07C2D46C
:101D2000FEF778FE801B0A4B9842F5D90320D8E7CE
:101D3000D36908490B40D361BEE70020D1E7C04614
:101D40000010024000700040FFFCFFFFFFFFFEFF9D
:101D500088130000FFFFFFEF10B5EFF3108C012296
:101D600082F3108801680B68124C23400B608CF3DF
:101D70001088EFF3108C82F3108801688B6893430E
:101D80008B608CF31088036E012B06D080232022F9
:101D9000C25000230366836610BDEFF3108183F306
:101DA0001088026813683234FF34A343136081F350
:101DB0001088EBE7DFFEFFFF10B5040083680269BF
:101DC000134342691343C269134301680A684848D0
:101DD000024013430B602268536846490B40E16898
:101DE0000B435360A369226A1A4321688B684248F7
:101DF000034013438B60414B1A6B03231340022BA8
:101E00000AD005D8002B16D0012B16D1033304E0DD
:101E1000032B14D1013B00E00823E0698022120269
:101E200090420ED0042B58D039D8002B3ED0022B34
:101E300033D133483EE00023EFE71023EDE71023D2
:101E4000EBE7042B26D007D8002B09D0022B01D1B9
:101E50002B4809E001203CE0082B05D0012038E0A8
:101E6000FFF7DAFE00283BD0400061684B08C0183D
:101E7000FEF738F90200103A224B9A4232D882B269
:101E80000F239A434008083B034013432268D36062
:101E900000201EE0FFF7F6FDE4E7012019E0082B23
:101EA00002D18020000205E0012012E0FFF7B4FE1D
:101EB000002819D061684B081818FEF713F90200C2
:101EC000103A104B9A4211D823680004000CD860D5
:101ED00000200023A366E36610BDFFF7D3FDE7E70C
:101EE0000020F6E70120F4E70020F2E70120F0E708
:101EF000F369FFFFFFCFFFFFFFF4FFFF0010024079
:101F000000127A00EFFF0000436A1B0706D5026843
:101F100053682C490B40416B0B435360436ADB070A
:101F200006D50268536828490B40816A0B43536009
:101F3000436A9B0706D50268536824490B40C16A6F
:101F40000B435360436A5B0706D502685368204918
:101F50000B40016B0B435360436ADB0606D50268F6
:101F600093681C490B40816B0B439360436A9B064B
:101F700006D50268936818490B40C16B0B43936008
:101F8000436A5B060BD50268536814490B40016C29
:101F90000B435360026C80235B039A420AD0436A6E
:101FA0001B0606D5026853680D490B40816C0B4334
:101FB00053607047026853680A490B40416C0B43F9
:101FC0005360ECE7FF7FFFFFFFFFFDFFFFFFFEFF1A
:101FD000FFFFFBFFFFEFFFFFFFDFFFFFFFFFEFFF55
:101FE000FFFFF7FFFFFF9FFFF8B5CE46474680B5DE
:101FF00006000D0017009946089B98463368DC6977
:102000002C40641B63425C41BC4233D143460133E4
:10201000F4D0FEF7FFFC4B46C01A40452FD843468C
:10202000002B2ED0326813685B07E7D5802DE5D0F2
:10203000402DE3D0D3691B0710D4D3691B05DDD530
:1020400080231B0113623000FFF786FE84232022C9
:10205000F2500C3B0022F25403200CE008241462DE
:102060003000FFF779FE8423F4500C3B0022F25439
:10207000012000E00020C0BCB946B046F8BD0320F6
:10208000F9E70320F7E7F0B5C64600B582B00400D3
:102090000D0090461E00C36F202B61D1002964D033
:1020A000002A64D0826880235B019A4204D10369CC
:1020B000002B01D1CB075CD484230022E250633B88
:1020C000E367FEF7A7FC070050234246E2520233C3
:1020D000E252A26880235B019A4202D00023984614
:1020E00017E02369002B28D00023984611E0202315
:1020F000E367032035E043461B882268DB05DB0DE0
:10210000138502239C46E0445223E25A013A92B2DC
:10211000E2525223E35A002B12D000963B000022D9
:1021200080212000FFF760FF0028E0D1002DE2D0E1
:102130002A7823681A850135E6E7A8460025E8E7EE
:1021400000963B00002240212000FFF74DFF0028B1
:1021500002D12023E36704E02023E367032000E0AB
:10216000022002B080BCB846F0BD0120F9E7012092
:10217000F7E70120F5E7000030B583B004008423C1
:102180000022C250FEF746FC050023681B681B07AF
:102190000FD423681B685B0729D42023E3678022C0
:1021A000A350002323666366083AA354002003B0BB
:1021B00030BD8021224B00930300002289032000C0
:1021C000FFF712FF0028E4D0EFF31081012383F31F
:1021D00010882268136880208343136081F310887D
:1021E0002023E36758330022E2547D38DFE7802163
:1021F000134B00932B000022C9032000FFF7F4FECD
:102200000028CAD0EFF31080012282F310882168E1
:102210000B680C4D2B400B6080F31088EFF310809F
:1022200082F3108821688B6893438B6080F3108859
:1022300080231F32E250083B0022E2540320B6E71D
:10224000FFFFFF01DFFEFFFF10B5041E2ED0C36F9E
:10225000002B21D02423E3672268136801218B43DC
:102260001360636A002B1DD12000FFF7A5FD012834
:1022700011D0226853680E490B405360226893685E
:1022800008218B4393602268136807390B4313605E
:102290002000FFF771FF10BD78330022C254FFF712
:1022A0006FF9D7E72000FFF72FFEDDE70120F2E707
:1022B000FFF7FFFFFEE7FEE77047704710B5FEF738
:1022C0009DFB10BD10B503000C4A0D49521A0D4973
:1022D0000968002907D00B490868C318934206D83B
:1022E000084A136010BD074907480860F3E700F08B
:1022F00063F80C23036001204042F3E70010002044
:102300000004000058010020A802002070470000CF
:102310000D488546FFF7FAFF0C480D490D4A00238A
:1023200002E0D458C4500433C4188C42F9D30A4A8A
:102330000A4C002301E013600432A242FBD300F0F8
:1023400041F8FEF703FBFEE700100020000000202C
:102350005C0000206C3000085C000020A40200201B
:10236000FEE700000EB410B500249DB00290069068
:102370000A481FAB07900490094804CB0590094810
:1023800002A9006801934C6600F0A6F8029B1C703D
:102390001DB010BC08BC03B01847C046FFFFFF7F4C
:1023A0000802FFFF0C00002003008218934200D1B6
:1023B000704719700133F9E7014B18687047C04640
:1023C0000C00002070B500260C4C0D4D641BA410B1
:1023D000A64209D1002600F06BFC0A4C0A4D641B92
:1023E000A410A64205D170BDB300EB589847013642
:1023F000EEE7B300EB5898470136F2E76430000887
:102400006430000868300008643000087047704786
:10241000F0B58E6885B01F000C0033000290039267
:10242000BE4254D80C22885E9022D20010422CD09A
:102430000322096923685B1A019363695343019A74
:10244000DD0FED187B1C6D109B182A00AB4201D9E3
:102450001D001A00400527D51100029800F062F90E
:10246000061E2AD0019A216900F0C7FBA289194BE8
:102470001A4080231343A381019B2661F61826602E
:1024800065613E00ED1A3B00A5601F003A0003990C
:10249000206800F083FB0020A3689B1BA3602368D7
:1024A000DB19236005B0F0BD029800F047FB061E63
:1024B000E2D12169029800F0A9FB0C230120029AC5
:1024C00040421360A28934331343A381EAE73E00FC
:1024D000DCE7C0467FFBFFFFF0B59FB002901C0019
:1024E0008B890E0015001B0611D50B69002B0ED130
:1024F000402100F017F930603061002805D10C232D
:10250000029A136001204042D4E04023736100230B
:10251000292102AA52180B9320331370013102AA09
:1025200010335218137005942C002378002B01D01F
:10253000252B48D1671BAC420BD03B002A00310051
:102540000298FFF765FF013000D1AEE00B9BDB196D
:102550000B932378002B00D1A7E001225321002305
:102560005242079202AA5218651C069309930893D7
:1025700013701C93554F29780522380000F032FB68
:102580006C1C069906AB00281FD1CA0604D5532738
:10259000202202A8C01902700A0704D553272B2253
:1025A00002A8C01902702A782A2A15D02C0000200F
:1025B0000A27DA682178651C3039092950D90028A2
:1025C00011D009920FE00134AFE70123C01B834013
:1025D0000B4325000693CDE7059A101D1268059060
:1025E000002A37DBDA6022782E2A0CD162782A2A78
:1025F0003BD1059A0234111D12680591002A01DAB7
:10260000012252425A60324D03222800217800F004
:10261000E9FA06AF002806D04023401B8340069A03
:10262000013413430693217806222A48651C397623
:1026300000F0D8FA00283FD0274B002B29D10722E1
:10264000059B07339343083305930B9B03995B1852
:102650000B9369E75242DA6002220A430692C2E70C
:102660007A432C0001205218A4E700220A205A6065
:102670001100130001342278651C303A092A03D96D
:10268000002BC0D00791BEE741432C0001238918DD
:10269000F1E705AA009239003200104B029800E0E1
:1026A00000BF0390039B0133CFD1B3890B985B0626
:1026B00000D527E71FB0F0BD05AA0092390032000F
:1026C000064B029800F01EF9EBE7C04630300008D8
:1026D000363000083A3000080000000011240008DD
:1026E00070B50F4E0D0031680400002902D100F0D2
:1026F00067FA30602900200000F062FA431C03D121
:1027000001256D42280070BD0323C51C9D43A842CE
:10271000F8D0291A200000F053FA0130F2D1EFE787
:1027200098020020F7B50322CB1C93430833050021
:102730001F000C2B34D20C27B94233D8280000F0EC
:10274000EDF9374E33681C00002C2FD139002800DA
:10275000FFF7C6FF0400431C5FD134680094009B60
:10276000002B4AD1002C52D023682800E31800998E
:10277000019300F025FA019B834248D12368280089
:10278000FF1A3900FFF7ACFF013040D02368DB1996
:10279000236033685A68002A33D1009B336019E004
:1027A000002BC9DA0C232B600020FEBD2168C91B59
:1027B00020D40B290AD9E2192760A34204D1326040
:1027C00063681160536005E05A60F9E76268A342EC
:1027D0000ED13260280000F0A9F9200007220B304A
:1027E000231D9043C21A9842DFD01B1AA350DCE786
:1027F0005A60EFE723006468A6E7009C63680093D3
:10280000ADE71A005B68A342FBD10023DAE70C2393
:1028100028002B6000F08AF9C6E70760DAE7C046B7
:102820009C020020F7B5160001938A680B690C0022
:102830000090934200DA1300220033604332127892
:10284000002A01D00133336023689B0602D5336828
:10285000023333602268062315001D401A4227D038
:10286000230043331B785A1E93412268920630D4CA
:10287000220001990098089D4332A847013025D0D5
:102880000622236800251340042B05D13368E56830
:10289000ED1AEB43DB171D40A3682269934201DD6B
:1028A0009B1AED180026B54220D1002010E001351A
:1028B000E36832689B1AAB42D2DD22000123019902
:1028C0000098089F1932B8470130F0D101204042EA
:1028D000FEBD3020E1184331087021005A1C4531FB
:1028E0000978A218433202331170C1E72200012394
:1028F00001990098089F1A32B8470130E6D0013696
:10290000D1E70000F0B58BB006920A00433207937E
:10291000059003920A7E0C00109B782A09D8622A3F
:102920000BD8002A00D1BAE07A490491582A00D184
:102930008EE0250042352A7022E010006338152809
:10294000F7D8FDF7C5FB16001F00F6FFF6FFF6FFF0
:10295000F6FF1F00F6FFF6FFF6FFF6FF9F003600BA
:102960007E00F6FFF6FFB000F6FF3600F6FFF6FF3A
:10297000820025001A684235111D196013682B70FA
:1029800001239EE018680968021D0D060BD5066834
:102990001A60002E03DA2D23039A764213705D4BE2
:1029A0000A27049318E006681A604906F1D536B282
:1029B000EFE70868196840C9050602D4400600D54B
:1029C000B6B21960534B0A2704936F2A00D1023F15
:1029D0002300002243331A706368A360002B06DBD8
:1029E00004212268039D8A43226033430CD0039D57
:1029F00030003900FDF7FCFB049B013D5B5C2B7054
:102A0000330006009F42F3D9082F09D12368DB0762
:102A100006D5626823699A4202DC3023013D2B709F
:102A2000039B5B1B2361079B210000930598069B7A
:102A300009AAFFF7F7FE013048D1012040420BB050
:102A4000F0BD202209680A432260782232490491AD
:102A5000210045310A701968226840C9100602D465
:102A6000500600D5B6B21960D30702D52023134310
:102A70002360002E01D01027AAE720222368934369
:102A80002360F8E71A680D68101D4969186013681B
:102A90002E0601D5196002E06D06FBD519800023D2
:102AA000039D2361BFE71A68111D19601568002195
:102AB0002800626800F096F8002801D0401B606092
:102AC000636823610023039A1370ACE72A0023692B
:102AD00006990598079DA8470130AED023689B074B
:102AE00015D4099BE0689842A9DA1800A7E72200EC
:102AF000012306990598079E1932B04701309CD0F2
:102B00000135E368099A9B1AAB42F0DCE9E700253E
:102B1000F7E7C046413000085230000810B50248BF
:102B2000FFF774FC10BDC0469402002010B50248A7
:102B3000FFF76DFC10BDC04694020020F7B50600FB
:102B40000C001500002905D11100FFF7EBFD040072
:102B50002000FEBD002A03D100F058F82C00F7E752
:102B600000F09EF80700854202D84308AB42EFD33D
:102B700029003000FFF7D6FD0190002801D1019C0B
:102B8000E6E72A00BD4200D93A002100019800F092
:102B900034F82100300000F039F8F0E710B5884231
:102BA00002D98B18984208D300239A4207D0CC5CF4
:102BB000C4540133F9E78B5C8354013AFBD210BD56
:102BC000002370B5064D040008002B60FFF77AFB68
:102BD000431C03D12B68002B00D0236070BDC0467E
:102BE000A0020020C9B28218904201D10020704793
:102BF00003788B42FBD00130F6E7002310B59A42F0
:102C000000D110BDCC5CC4540133F8E770B50500A9
:102C10000C1E10D0043C2368002B00DAE4182800B6
:102C2000FFF77CFF1D4A1368002B05D16360146019
:102C30002800FFF77BFF70BDA34208D92068211848
:102C40008B42F3D119685B6809182160EEE71A001E
:102C50005B68002B01D0A342F9D911685018A0423B
:102C60000BD120680918501811608342E0D1186810
:102C70005B68411811605360DAE7A04202D90C2367
:102C80002B60D5E7206821188B4203D119685B6857
:102C90000918216063605460CAE7C0469C020020A6
:102CA0000B1F1B68181F002B01DA0B58C018704748
:102CB000F8B5C046F8BC08BC9E467047F8B5C0469B
:082CC000F8BC08BC9E467047F9
:102CC800802F0008942F0008A42F0008B82F0008B0
:102CD800CC2F0008DC2F0008556E6B6E6F776E00E6
:102CE8000A3D3D3D20414456373531332046554C49
:102CF8004C20444941474E4F5354494353203D3D8E
:102D08003D0A00003078343120506F7765722020FA
:102D18002020203A20307825303258202028506F43
:102D28007765722D5570203D202564290A00000022
:102D38003078343220537461747573202020203A1F
:102D48002030782530325820204850443D256420D2
:102D580020527853656E73653D25640A00000000B3
:102D68003078394520504C4C2B496E707574203A98
:102D7800203078253032582020504C4C204C6F633E
:102D88006B65643D25640A003078413020544D4419
:102D980053205374617475733A2030782530325853
:102DA8000A0000003078413120544D445320506FC0
:102DB800776572203A203078253032580A000000B2
:102DC8003078433820444443205374617465203A72
:102DD800203078253032582020282573290A000011
:102DE80030783345204465746563746564205649BA
:102DF800433A20307825303258202028564943203D
:102E08003D202564290A00003D3D3D3D3D3D3D3DB9
:102E18003D3D3D3D3D3D3D3D3D3D3D3D3D3D3D3DDA
:102E28003D3D3D3D3D3D3D3D0A0A0000205772694C
:102E38007465204552524F520A00000020526561C5
:102E480064204552524F520A000000002056657215
:102E5800696679204641494C0A000000203D3E2021
:102E68004F4B0A004144495F5245434F4D4D454E33
:102E7800444544006D757374206265207365742041
:102E8800746F2064656661756C740000436C6561DD
:102E9800725F41564D75746500000000544D4453EF
:102EA8005F434C4B5F4452495645525F4F4E0000BA
:102EB8005247423838385F343A343A340000000018
:102EC8004F75747075745F466F726D61745F3434DA
:102ED800345F3862697400004353435F4469736127
:102EE800626C656400000000485320565320414C32
:102EF80020343A3300000000544D44535F454E419E
:102F0800424C450048444D49204F4E002041564907
:102F1800205041434B455420454E41424C4500000A
:102F280041564900504F5745525F55500000000028
:102F3800504C4C3000000000504C4C310000000058
:102F4800504C4C3200000000504C4C335F486967CD
:102F58006846726571000000504C4C340000000057
:102F6800504C4C3500000000504C4C36000000001E
:102F7800504C4C3700000000496E20526573657450
:102F880020284E6F20485044290000005265616493
:102F9800696E6720454449440000000049444C4597
:102FA800202845444944205265616479290000007D
:102FB800496E697469616C697A696E67204844432F
:102FC800500000004844435020456E61626C6564BF
:102FD80000000000496E697469616C697A696E67FE
:102FE8002048444350205265706561746572000042
:102FF8000102030405060708090A0B0C0D0E0F1041
:1030080002030405060708090A0B0C0D0E0F101021
:10301800000000000102030400000000000000009E
:103028000102030406070809232D302B2000686CD1
:103038004C006566674546470030313233343536D3
:10304800373839414243444546003031323334350C
:0C30580036373839616263646566000039
:043064002502000839
:04306800FD0100085E
:10306C00010000000400000000127A001000002093
:10307C00000000005C010020C40100202C02002094
:10308C000000000000000000000000000000000034
:10309C000000000000000000000000000000000024
:1030AC000000000000000000000000000000000014
:0C30BC0000000000000000000000000008
:0400000508002311BB
:00000001FF
