:020000040800F2
:1000000000100020851F0008711F0008731F0008E2
:1000100000000000000000000000000000000000E0
:10002000000000000000000000000000751F000834
:100030000000000000000000771F0008791F000882
:10004000D51F000800000000D51F0008D51F0008BC
:10005000D51F0008D51F0008D51F0008D51F0008B0
:1000600000000000D51F0008D51F0008D51F00089C
:10007000D51F0008D51F0008D51F0008000000008C
:10008000D51F00080000000000000000D51F000878
:1000900000000000D51F0008D51F0008D51F00086C
:1000A00000000000D51F000800000000D51F000858
:1000B0000000000000000000000000000000000040
:1000C0000023C25C0133002AFBD1581E7047000098
:1000D000002243088B4274D303098B425FD3030A87
:1000E0008B4244D3030B8B4228D3030C8B420DD39A
:1000F000FF22090212BA030C8B4202D31212090228
:1001000065D0030B8B4219D300E0090AC30B8B4265
:1001100001D3CB03C01A5241830B8B4201D38B0313
:10012000C01A5241430B8B4201D34B03C01A5241B8
:10013000030B8B4201D30B03C01A5241C30A8B42FB
:1001400001D3CB02C01A5241830A8B4201D38B02E6
:10015000C01A5241430A8B4201D34B02C01A52418A
:10016000030A8B4201D30B02C01A5241CDD2C309FC
:100170008B4201D3CB01C01A524183098B4201D378
:100180008B01C01A524143098B4201D34B01C01A63
:10019000524103098B4201D30B01C01A5241C308DB
:1001A0008B4201D3CB00C01A524183088B4201D34A
:1001B0008B00C01A524143088B4201D34B00C01A36
:1001C0005241411A00D20146524110467047FFE7A2
:1001D00001B5002000F006F802BDC0460029F7D0A6
:1001E00076E770477047C04610B5064C2378002B61
:1001F00007D1054B002B02D0044800E000BF0123CB
:10020000237010BD0C0000200000000044200008F6
:10021000044B10B5002B03D00349044800E000BF95
:1002200010BDC0460000000010000020442000085F
:1002300070B586B001AC14220021200001F0CBFE85
:100240000F4B5A69802189020A435A615B690B404E
:100250000093009B882676009025ED050022310052
:10026000280000F065FB019601230293002303930D
:1002700004932100280000F097FA06B070BDC04634
:100280000010024010B572B6802190200022490073
:10029000C00500F04DFBFEE710B51248124B03609D
:1002A000124B4360002383600122C26003614361FB
:1002B0008361C361036200F015FD00280CD1094879
:1002C000002100F019FF002808D10648002100F0A5
:1002D0003FFF002804D110BDFFF7D4FFFFF7D2FF86
:1002E000FFF7D0FFB0000020005400402B1D20007D
:1002F00010B50B480B4B0360E1235B024360002306
:100300008360C36003610C2242618361C361036245
:10031000436201F0F7FD002800D110BDFFF7B2FFE6
:10032000280000200038014010B594B008AC3022FD
:100330000021200001F04FFE1022002104A801F04E
:100340004AFE10220021684601F045FE0223089370
:10035000013B0B930F330C93200000F0A3FF002808
:1003600017D104A807230493002343608360C3606C
:10037000002101F00FFA00280DD1684621230093D7
:1003800000230293039301F0B5FA002805D114B0BD
:1003900010BDFFF777FFFFF775FFFFF773FF000052
:1003A00070B586B006000D00140017236B44197059
:1003B00016226A44002111703948012252420292E9
:1003C00002320192009301233200723100F0F8FCF6
:1003D000002828D1324801235B4202930233019363
:1003E00015336B44009301233200722100F0B4FDF9
:1003F00000282CD116236B441B78AB423BD1200044
:10040000FFF75EFE0126764282B2264D33002100C0
:10041000280001F096FC244933000722280001F04F
:1004200090FC06B070BD2000FFF74AFE0126764220
:1004300082B21C4D33002100280001F082FC1B49D0
:1004400033000D22280001F07CFCFFF71BFF200089
:10045000FFF736FE0126764282B2124D33002100AC
:10046000280001F06EFC124933000C22280001F034
:1004700068FCFFF707FF2000FFF722FE0126764207
:1004800082B2084D33002100280001F05AFC0949CE
:1004900033000D22280001F054FCFFF7F3FEC046A4
:1004A000B0000020280000202C210008FC200008BB
:1004B0000C2100081C21000830B595B012AA204B71
:1004C00011CB11C20024002C06D01E4948226846D8
:1004D00001F0AEFD002412E012ABE00019184A68EA
:1004E0004978C05CFFF75CFF0134ECE76B46E00045
:1004F00019184A684978C05CFFF752FF0134082C8C
:10050000F4D90123104911485B42182201F019FC6B
:1005100080256D009024E4052900200000F00EFAEB
:10052000642000F0DBF82900200000F007FA6420C6
:1005300000F0D4F82900200000F000FA15B030BD1A
:100540005C200008642000083421000828000020F6
:1005500030B595B01B495022684601F069FD002472
:1005600008E06B46E00019184A684978C05CFFF75C
:1005700017FF0134092CF4D90123134913485B42B6
:100580001E2201F0DEFB80256D009024E405290089
:10059000200000F0D3F9642000F0A0F8290020002A
:1005A00000F0CCF9642000F099F82900200000F058
:1005B000C5F9642000F092F82900200000F0BEF98F
:1005C00015B030BDAC2000084C21000828000020E8
:1005D00010B586B000F060F8FFF7A6FEC82000F066
:1005E0007DF8FFF725FEFFF757FEFFF781FEFFF7C7
:1005F00063FFFFF7ADFF17246C44002323700E4800
:10060000013B02930233019300949E22722100F079
:10061000A3FC2378DB0607D50123084908485B4281
:100620001B2201F08EFBFEE70123064904485B42D2
:10063000102201F086FBF6E7B00000206C210008D4
:10064000280000208821000810B504000F4B1978FD
:10065000FA208000FFF73CFD01000D4B1868FFF702
:1006600037FD00F09DF800280DD1032C01D90120A1
:100670000AE0013000222100404200F08DF8054BD5
:100680001C60002000E0012010BDC04600000020DA
:10069000080000200400002010B5064A136810214D
:1006A0000B4313600320FFF7CFFF00F07BFD00201A
:1006B00010BDC04600200240034A1168034B1B785E
:1006C0005B1813607047C046040100200000002042
:1006D000014B18687047C0460401002070B5040043
:1006E000FFF7F6FF0500631C02D0044B1B78E418EB
:1006F000FFF7EEFF401BA042FAD370BD00000020C0
:1007000070B5002811DB8308134DC0339B005C5982
:1007100003221040C000FC3216008640B443890119
:100720000A40824022435A5170BD0F230340083BC8
:100730009B0806339B00094A944663445C68032285
:100740001040C000FC3215008540AC4389010A40CE
:10075000824022435A60E7E700E100E000ED00E05C
:10076000013880235B0498420FD2094A506009483F
:10077000036A1B021B0AC02109060B430362002304
:10078000936007331360002070470120FCE7C046E8
:1007900010E000E000ED00E010B5FFF7B1FF10BD84
:1007A00010B5FFF7DDFF10BDF0B583B0002356E0B4
:1007B00086685F000324BC40A643CC68BC40344339
:1007C0008460446894434E683609012232409A405E
:1007D0002243426053E0DE080836B600375805323F
:1007E0001A4092000F249440A7430C6994402200C1
:1007F0003A43325056E0032600E00026A64034007B
:100800003C4302329200444E9451444A9768EA4372
:100810003E00AE434C68E40201D53E002E433F4CFF
:10082000A660E7683E0016404C68A40201D53E0071
:100830002E433A4CE66067683E0016404C68A403BD
:1008400001D53E002E43354C6660266832404C6828
:10085000E40301D52A003243304C226001330C6896
:100860002200DA4056D001229A4025001540144259
:10087000F4D04E6803243440013C012C98D94C68D4
:1008800003222240032A08D0C4685E000322B2403B
:1008900094438A68B2402243C2604C6803222240DB
:1008A000022A98D004685E0003221700B740BC43B8
:1008B0004F683A40B240224302604C68C022920224
:1008C0001442CBD0164CA66901221643A661A46936
:1008D00022400192019A9A08941CA4000E4EA75936
:1008E00003241C40A4000F26A640B7439026F6051B
:1008F000B04282D00B4EB04208D00B4EB04207D06F
:100900000A4EB04200D176E7052677E7012675E763
:10091000022673E703B0F0BD00000140000401406F
:10092000001002400004004800080048000C004885
:10093000002A01D0816170478162FCE7426913009F
:100940000B401B0491430B4383617047026893691A
:100950009B0701D50023936203689A69D20703D4E9
:100960009A6901210A439A617047000010B5890510
:10097000890D120411431943029B19434900490888
:10098000046862685B0D8020C00003400348034395
:100990009A4313000B43636010BDC046FF63FF031F
:1009A000F0B5C64600B504000D00170001688B695C
:1009B000102216001E401A4200D175E01023CB61B0
:1009C000002398460026206883699B0631D4002EB8
:1009D0002FD16B1CF7D0FFF77BFEC01BA84201D8BC
:1009E000002DF0D121684B688022D20113404222B1
:1009F000A25CD2B28869000403D5002B01D1202A61
:100A00000ED123689B699B06DDD4FFF761FEC01BF6
:100A10001928F6D9202342461A4390460126D2E7E8
:100A20004A688023DB0113434B60FFF751FE070048
:100A3000E7E7002E01D12023C36104264346334358
:100A40001E00012522689369D90504D501210E43B2
:100A5000FF31D16101255A0506D5082216432268C7
:100A60008021C900D16101259B051FD502231E43AA
:100A7000236880229200DA6101252000FFF766FFDB
:100A8000226853680B490B405360636C33436364C3
:100A900041232022E25400232232A354023AA354D9
:100AA000280080BCB846F0BD0025CBE7002DF7D06C
:100AB000E3E7C04600E800FE70B504000D00160034
:100AC00023689B699B0720D4320029002000FFF790
:100AD00067FF00281BD16B1CF2D0FFF7F9FD801BCC
:100AE000A84201D8002DEBD123689B699B07E7D46E
:100AF000636C2022134363644123E25400232232B7
:100B0000A354023AA354012000E0002070BD01204C
:100B1000FCE7F0B5D6464F4680B583B007000D0020
:100B2000160099460A9B9A463B689C692C40641BB8
:100B300063425C410196B44228D15246494638008E
:100B4000FFF72EFF002827D14B460133ECD0FFF7EB
:100B5000BFFD5346C01A484502D84B46002BE3D18F
:100B60003B689B692B405B1B5A425341019A93425D
:100B7000DAD17B6C202213437B644123FA54002397
:100B80002232BB54023ABB54012000E0002003B0E3
:100B9000C0BCBA46B146F0BD0120F8E770B582B0DE
:100BA000040015001E008023F2B2194800905B0477
:100BB0002000FFF7DBFE079A06992000FFF77CFF75
:100BC00000281ED1012E0ED12368EDB29D62079B35
:100BD0000093069B002280212000FFF79AFF002847
:100BE00013D102B070BD23682A0A9A62079A069947
:100BF0002000FFF761FF002805D12368EDB29D6258
:100C0000E5E70120EDE70120EBE70120E9E7C04639
:100C10000020008070B582B0040015001E00DAB21A
:100C2000184B00930023FFF7A1FE079A06992000B6
:100C3000FFF742FF00281ED1012E0ED12368EDB22E
:100C40009D62079B0093069B002240212000FFF736
:100C500060FF002813D102B070BD23682A0A9A628F
:100C6000079A06992000FFF727FF002805D123687F
:100C7000EDB29D62E5E70120EDE70120EBE7012001
:100C8000E9E7C0460020008070B504000D001600A2
:100C900003E023689B699B0612D523689B699B062A
:100CA0001BD4320029002000FFF77AFE002816D15D
:100CB000FFF70EFD801BA842EBD8002DEDD1E8E731
:100CC000636C2022134363644123E25400232232E5
:100CD000A354023AA354012000E0002070BD01207B
:100CE000FCE7000010B5041E60D04123C35C002B5C
:100CF00048D041232422E2542268136801218B4307
:100D00001360636822682A490B4013612268936864
:100D100028490B409360E368012B39D0A168226811
:100D200084231B020B439360E368022B37D02268B5
:100D3000536821490B405360226851681F4B0B4395
:100D400053602268D3681B490B40D36023696269F2
:100D50001343A269120221681343CB60E369216A3D
:100D600022680B4313602268136801210B43136050
:100D70000023636441221F31A15423630132A35431
:100D8000002010BD40330022C25400F023FAB0E727
:100D9000A168226880231B020B439360C4E722688A
:100DA000516880231B010B435360C5E70120E8E72E
:100DB000FFFFFFF0FF7FFFFFFFF7FFFF0080000254
:100DC000F0B587B004000391049205930CAB20CBDF
:100DD0001F884123C35C202B00D0AFE0002D18D02A
:100DE000002F16D04023C35C012B00D1A9E0402383
:100DF0000122C254FFF76CFC0600802100901923E9
:100E0000012209022000FFF784FE002806D00120FD
:100E100095E080239B006364012090E04123212220
:100E2000E25401331F32E254002363646562678534
:100E3000636301960E9B0093059B049A039920001F
:100E4000FFF7ACFE00280ED1638DFF2B10D9FF23D6
:100E500023857F3B002200925B04FF320399200030
:100E6000FFF784FD20E040230022E254012066E0E9
:100E7000628D92B222858023D2B2002100919B0420
:100E800003992000FFF772FD0EE0628D92B2228579
:100E90008023D2B2002100919B0403992000FFF728
:100EA00065FD638D002B32D032000E992000FFF7D4
:100EB00003FE002847D1626A236812789A62636A47
:100EC00001336362638D013B9BB26385238D013BDC
:100ED0009BB22385628D002AE3D0002BE1D10096DE
:100EE0000E9B002280212000FFF713FE00282CD14A
:100EF000638DFF2BC9D9FF2323857F3B00220092FE
:100F00005B04FF3203992000FFF730FDC9E7320090
:100F10000E992000FFF7B8FE002818D12368202280
:100F2000DA6121684B680B4D2B404B604123E25442
:100F300000232232A354023AA35400E0022007B057
:100F4000F0BD0220FBE70120F9E70120F7E70120CF
:100F5000F5E7C04600E800FEF0B587B00400039155
:100F6000049205930CAB20CB1F884123C35C202B3C
:100F700000D0B1E0002D18D0002F16D04023C35C64
:100F8000012B00D1ABE040230122C254FFF7A0FBAC
:100F90000600802100901923012209022000FFF79A
:100FA000B8FD002806D0012097E080239B006364F1
:100FB000012092E041232222E25401331E32E25406
:100FC0000023636465626785636301960E9B0093EB
:100FD000059B049A03992000FFF71CFE00280ED100
:100FE000638DFF2B10D9012323857F33404A009264
:100FF0005B04012203992000FFF7B8FC20E04023A6
:101000000022E254012068E0628D92B222858023A2
:10101000D2B2374900919B0403992000FFF7A6FC48
:101020000EE0628D92B222858023D2B2002100911F
:101030009B0403992000FFF799FC638D002B34D0AB
:1010400000960E9B002204212000FFF762FD00287D
:1010500047D123685A6A636A1A70636A013363620C
:10106000238D013B9BB22385628D013A92B262854A
:10107000628D002AE1D0002BDFD100960E9B00226A
:1010800080212000FFF745FD00282CD1638DFF2B28
:10109000C7D9012323857F33002200925B040132EC
:1010A00003992000FFF762FCC7E732000E99200089
:1010B000FFF7EAFD002818D123682022DA612168B1
:1010C0004B680C4D2B404B604123E25400232232ED
:1010D000A354023AA35400E0022007B0F0BD02205E
:1010E000FBE70120F9E70120F7E70120F5E7C0461B
:1010F0000024008000E800FEF0B54123C35C202BF3
:1011000020D12033C35C012B1ED040240122025584
:1011100041252423435506683368934333600668AA
:1011200033680A4F3B403360066833680B433360D3
:1011300001680B6813430B602023435500230355BC
:101140000020F0BD0220FCE70220FAE7FFEFFFFFDE
:10115000F0B54123C35C202B1ED12033C35C012B8F
:101160001CD0402401220255412524234355066802
:1011700033689343336006683368094F3B40090284
:101180001943316001680B6813430B6020234355FA
:10119000002303550020F0BD0220FCE70220FAE7FF
:1011A000FFF0FFFF82B00A4B996901221143996158
:1011B00099690A400092009ADA69802149050A4338
:1011C000DA61DB690B400193019B02B07047C046B6
:1011D0000010024010B588B004001422002103A8BA
:1011E00000F0F9FE2268134B9A4201D008B010BDFE
:1011F000114C636980229202134363616369134057
:101200000193019B03A9C023DB00039312234B60CE
:101210000F3BCB6001330B619020C005FFF7C4FA90
:10122000E369802292031343E361E369134002936D
:10123000029BDBE7005400400010024010B588B06C
:1012400004001422002103A800F0C5FE2268134BFD
:101250009A4201D008B010BD114B9A698021C90192
:101260000A439A619A690A400192019A5A69802157
:1012700089020A435A615B690B400293029B03A9EE
:101280000C2303930A3B4B600133CB60023B0B61A1
:101290009020C005FFF788FADCE7C046003801401F
:1012A0000010024070B582B0041E00D12EE2036827
:1012B000DB0726D5AE4B5A680C231340042B18D0FD
:1012C000AB4B5A680C231340082B0ED06368012BDC
:1012D0003CD0002B51D1A64B1A68A6490A401A608F
:1012E0001A68A5490A401A6036E0A14B5B68DB0327
:1012F000ECD59F4B1B689B0303D56368002B00D183
:1013000007E223689B0772D5994B5B680C221A424F
:101310005DD0974B5A680C231340082B53D0E368D9
:10132000002B00D185E0924A136801210B43136022
:10133000FFF7CEF905008E4B1B689B0770D4FFF7B3
:10134000C7F9401B0228F6D90320E0E1884A11685A
:1013500080235B020B4313606368002B25D0FFF7EB
:10136000B7F90500824B1B689B03CAD4FFF7B0F99D
:10137000401B6428F6D90320C9E1052B09D07C4B1A
:101380001A687C490A401A601A687B490A401A6048
:10139000E2E7774B19688022D2020A431A60196883
:1013A000802252020A431A60D6E7FFF791F905003E
:1013B0006F4B1B689B03A4D5FFF78AF9401B642879
:1013C000F6D90320A3E16A4B5B68DB03A7D4684B23
:1013D0001B689B0703D5E368012B00D09BE16449A0
:1013E0000B68F82293432269D20013430B602368F1
:1013F0001B0744D5E369002B2ED05D4A536A0121B7
:101400000B435362FFF764F90500594B5B6A9B0776
:1014100035D4FFF75DF9401B0228F6D9032076E1A9
:1014200053490B68F82293432269D20013430B609F
:10143000DDE74F4A136801218B431360FFF748F93A
:1014400005004B4B1B689B07D1D5FFF741F9401BAB
:101450000228F6D903205AE1454A536A01218B43F9
:101460005362FFF735F90500414B5B6A9B0706D5D0
:10147000FFF72EF9401B0228F6D9032047E1236825
:101480005B0700D480E03A4BDB69DB001DD4384BAE
:10149000DA69802149050A43DA61DB690B4001936F
:1014A000019B0125354B1B68DB0510D5A368012B7B
:1014B00021D0002B36D12E4B1A6A01218A431A62A1
:1014C0001A6A03318A431A621AE00025EAE72B4AB6
:1014D000116880235B000B431360FFF7F9F80600E7
:1014E000264B1B68DB05E1D4FFF7F2F8801B64286C
:1014F000F6D903200BE11E4A136A01210B43136244
:10150000A368002B24D0FFF7E3F80600184B1B6AF2
:101510009B0737D4FFF7DCF8801B194B9842F5D9AD
:101520000320F4E0052B09D0114B1A6A01218A43EC
:101530001A621A6A03318A431A62E1E70C4B1A6A8B
:1015400004210A431A621A6A03390A431A62D7E766
:10155000FFF7BEF80600064B1B6A9B0712D5FFF784
:10156000B7F8801B064B9842F5D90320CFE0C04660
:1015700000100240FFFFFEFFFFFFFBFF0070004076
:1015800088130000012D33D02368DB0610D5636972
:10159000012B33D0053351D1654A536B04218B4362
:1015A0005363536BF4318B43A169C9000B435363FD
:1015B000236A002B00D1B0E05D4A51680C220A403A
:1015C000082A00D18AE0022B4FD0594A13685949A2
:1015D0000B401360FFF77CF80400554B1B689B0120
:1015E0007AD5FFF775F8001B0228F6D903208EE0A4
:1015F0004F4AD36950490B40D361C5E74C4B5A6BF6
:1016000004210A435A635A6B03390A435A63FFF7AA
:101610005FF80500464B5B6B9B0706D4FFF758F855
:10162000401B0228F6D9032071E041494B6BF82298
:101630009343A269D20013434B63B9E73C4B5A6B07
:1016400004210A435A635A6B03398A435A63FFF7EA
:101650003FF80500364B5B6B9B07A9D5FFF738F8C1
:10166000401B0228F6D9032051E0314A1368314962
:101670000B401360FFF72CF805002D4B1B689B01F6
:1016800006D5FFF725F8401B0228F6D903203EE0D7
:10169000274BDA6A0F218A43E16A0A43DA625A6801
:1016A00026490A40A16A606A01430A435A601968E0
:1016B000802252040A431A60FFF70AF804001C4B08
:1016C0001B689B0106D4FFF703F8001B0228F6D91C
:1016D00003201CE000201AE0002018E0012B1ED09F
:1016E000134B5A68D86A80235B021340616A8B42AD
:1016F00017D10F230340E16A8B4214D1F0239B03DF
:101700001A40A36A9A4210D1002000E0012002B0E2
:1017100070BD0120FBE70120F9E70020F7E7012079
:10172000F5E70120F3E70120F1E70120EFE7C046EC
:1017300000100240FFFFFFFEFFFFFFEFFFFFC2FFB1
:1017400010B5104B5A680C231340082B01D00E48DB
:1017500010BD910C073319400C48445C0949C96A13
:101760000B400B49C95CD20304D50748FEF7B0FC17
:101770006043EDE76201121B93019B1ADB001B190A
:101780001802E5E70010024000127A0094220008D7
:101790008422000870B504000D00002800D17EE00E
:1017A000434B1A68012313408B420AD240490B680D
:1017B000012293432B430B600B681A40AA4200D0CE
:1017C0006FE023689A070ED55B0705D5394A516843
:1017D000E023DB000B435360364A5368F0218B4310
:1017E000A1680B4353602368DB072DD56368012B89
:1017F0001ED0022B22D02F4A1268920753D52D49B2
:101800004A680320824313434B60FEF761FF0600E2
:10181000284B5B680C221A4063689B009A4213D0E5
:10182000FEF756FF801B244B9842F1D9032035E088
:10183000204A12689203E2D401202FE01D4A126868
:101840009201DCD4012029E0194B1A6801231340CE
:10185000AB4209D916490B68012293432B430B6015
:101860000B681A40AA4220D123685B0706D5114AAB
:10187000536812490B40E1680B435360FFF760FF68
:101880000C4B5A6812090F2313400D4AD35CD84001
:101890000C4B18600320FEF7D7FE002070BD01201E
:1018A000FCE70120FAE70120F8E70120F6E7C0464F
:1018B000002002400010024088130000FFF8FFFFE4
:1018C000AC22000808000020014B18687047C04691
:1018D0000800002010B5FFF7F7FF044B5A68120A02
:1018E00007231340024AD35CD84010BD00100240C9
:1018F000A422000870B582B004000368DB0339D568
:101900003E4BDB69DB004CD43C4BDA698021490556
:101910000A43DA61DB690B400193019B0125384BD7
:101920001B68DB053FD5354B1A6AC0239B001100AD
:1019300019401A4215D06368C022920013408B42AE
:101940000FD02E4B1A6A2F4911401E6A8020400288
:1019500030431862186A2C4E304018621962D20760
:1019600035D4264A136A27490B4061680B4313623A
:10197000012D3BD02368DB0706D5204A136B0321DA
:101980008B43A1680B43136323689B0633D51B4A23
:10199000136B10218B43E1680B431363002002B0EB
:1019A00070BD0025BBE7164A116880235B000B431E
:1019B0001360FEF78DFE0600114B1B68DB05B2D4E9
:1019C000FEF786FE801B6428F6D90320E7E7FEF7C2
:1019D0007FFE0600094B1B6A9B07C2D4FEF778FE08
:1019E000801B0A4B9842F5D90320D8E7D3690849F0
:1019F0000B40D361BEE70020D1E7C0460010024093
:101A000000700040FFFCFFFFFFFFFEFF8813000097
:101A1000FFFFFFEF10B5EFF3108C012282F3108867
:101A200001680B68124C23400B608CF31088EFF3B5
:101A3000108C82F3108801688B6893438B608CF361
:101A40001088036E012B06D080232022C250002371
:101A50000366836610BDEFF3108183F3108802687C
:101A600013683234FF34A343136081F31088EBE72B
:101A7000DFFEFFFF10B5040083680269134342696B
:101A80001343C269134301680A684848024013437C
:101A90000B602268536846490B40E1680B43536072
:101AA000A369226A1A4321688B68424803401343A2
:101AB0008B60414B1A6B03231340022B0AD005D8CD
:101AC000002B16D0012B16D1033304E0032B14D1C5
:101AD000013B00E00823E0698022120290420ED010
:101AE000042B58D039D8002B3ED0022B33D13348A9
:101AF0003EE00023EFE71023EDE71023EBE7042B94
:101B000026D007D8002B09D0022B01D12B4809E0A1
:101B100001203CE0082B05D0012038E0FFF7DAFE79
:101B200000283BD0400061684B08C018FEF7D0FA8F
:101B30000200103A224B9A4232D882B20F239A43C3
:101B40004008083B034013432268D36000201EE096
:101B5000FFF7F6FDE4E7012019E0082B02D1802011
:101B6000000205E0012012E0FFF7B4FE002819D0C2
:101B700061684B081818FEF7ABFA0200103A104BD8
:101B80009A4211D823680004000CD860002000237A
:101B9000A366E36610BDFFF7D3FDE7E70020F6E795
:101BA0000120F4E70020F2E70120F0E7F369FFFFEE
:101BB000FFCFFFFFFFF4FFFF0010024000127A008A
:101BC000EFFF0000436A1B0706D5026853682C49E3
:101BD0000B40416B0B435360436ADB0706D5026839
:101BE000536828490B40816A0B435360436A9B0743
:101BF00006D50268536824490B40C16A0B43536001
:101C0000436A5B0706D50268536820490B40016BA5
:101C10000B435360436ADB0606D5026893681C4990
:101C20000B40816B0B439360436A9B0606D50268A9
:101C3000936818490B40C16B0B439360436A5B0682
:101C40000BD50268536814490B40016C0B43536079
:101C5000026C80235B039A420AD0436A1B0606D5B6
:101C6000026853680D490B40816C0B435360704709
:101C7000026853680A490B40416C0B435360ECE720
:101C8000FF7FFFFFFFFFFDFFFFFFFEFFFFFFFBFFEB
:101C9000FFEFFFFFFFDFFFFFFFFFEFFFFFFFF7FF9C
:101CA000FFFF9FFFF8B5CE46474680B506000D0002
:101CB00017009946089B98463368DC692C40641BE2
:101CC00063425C41BC4233D143460133F4D0FEF75A
:101CD000FFFC4B46C01A40452FD84346002B2ED060
:101CE000326813685B07E7D5802DE5D0402DE3D03F
:101CF000D3691B0710D4D3691B05DDD580231B01D5
:101D000013623000FFF786FE84232022F2500C3B42
:101D10000022F25403200CE0082414623000FFF784
:101D200079FE8423F4500C3B0022F254012000E0A1
:101D30000020C0BCB946B046F8BD0320F9E7032037
:101D4000F7E7F0B5C64600B582B004000D00904636
:101D50001E00C36F202B61D1002964D0002A64D0FB
:101D6000826880235B019A4204D10369002B01D170
:101D7000CB075CD484230022E250633BE367FEF789
:101D8000A7FC070050234246E2520233E252A26807
:101D900080235B019A4202D00023984617E0236912
:101DA000002B28D00023984611E02023E36703206E
:101DB00035E043461B882268DB05DB0D13850223D3
:101DC0009C46E0445223E25A013A92B2E252522334
:101DD000E35A002B12D000963B0000228021200005
:101DE000FFF760FF0028E0D1002DE2D02A782368B9
:101DF0001A850135E6E7A8460025E8E700963B008E
:101E0000002240212000FFF74DFF002802D12023AF
:101E1000E36704E02023E367032000E0022002B030
:101E200080BCB846F0BD0120F9E70120F7E70120AA
:101E3000F5E7000030B583B0040084230022C250CF
:101E4000FEF746FC050023681B681B070FD42368B8
:101E50001B685B0729D42023E3678022A35000235B
:101E600023666366083AA354002003B030BD802186
:101E7000224B00930300002289032000FFF712FF8A
:101E80000028E4D0EFF31081012383F31088226847
:101E9000136880208343136081F310882023E36755
:101EA00058330022E2547D38DFE78021134B009342
:101EB0002B000022C9032000FFF7F4FE0028CAD03F
:101EC000EFF31080012282F3108821680B680C4D1B
:101ED0002B400B6080F31088EFF3108082F31088A2
:101EE00021688B6893438B6080F3108880231F32B6
:101EF000E250083B0022E2540320B6E7FFFFFF0157
:101F0000DFFEFFFF10B5041E2ED0C36F002B21D0C3
:101F10002423E3672268136801218B431360636AFB
:101F2000002B1DD12000FFF7A5FD012811D022684C
:101F300053680E490B4053602268936808218B4315
:101F400093602268136807390B4313602000FFF782
:101F500071FF10BD78330022C254FFF76FF9D7E745
:101F60002000FFF72FFEDDE70120F2E7FFF7FFFF7C
:101F7000FEE7FEE77047704710B5FEF79DFB10BD0A
:101F8000704700000D488546FFF7FAFF0C480D49E1
:101F90000D4A002302E0D458C4500433C4188C42C4
:101FA000F9D30A4A0A4C002301E013600432A2422A
:101FB000FBD300F019F8FEF70BFBFEE70010002042
:101FC000000000200C000020C42200080C000020AB
:101FD00008010020FEE703008218934200D17047F9
:101FE00019700133F9E7000070B500260C4C0D4D57
:101FF000641BA410A64209D1002600F023F80A4C65
:102000000A4D641BA410A64205D170BDB300EB5865
:1020100098470136EEE7B300EB5898470136F2E7F0
:10202000BC220008BC220008C0220008BC22000814
:10203000002310B59A4200D110BDCC5CC4540133CA
:10204000F8E70000F8B5C046F8BC08BC9E467047EB
:0C205000F8B5C046F8BC08BC9E467047BE
:10205C004110000078220008980300002822000894
:10206C009AE00000302200089C3000003822000862
:10207C009D01000040220008A2A400004822000894
:10208C00A3A4000050220008E0D000005822000851
:10209C00F9000000602200083B5400006822000890
:1020AC00150000009C21000816300000A821000833
:1020BC0017000000B82100083C000000C4210008F3
:1020CC00AF020000D421000840800000E02100088D
:1020DC0055100000F02100085620000000220008D6
:1020EC004A8000000C220008A10000001822000801
:1020FC00205772697465204552524F520A000000F5
:10210C002052656164204552524F520A0000000073
:10211C0020566572696679204641494C0A000000D8
:10212C00203D3E204F4B0A00506F776572202B20CC
:10213C00504C4C202B205052207834204F4B0A000E
:10214C0048444D4920496E6974202B20544D44530A
:10215C00204F4E20436F6D706C6574650A00000053
:10216C00504C4C204C4F434B454420283430204D90
:10217C00487A20544D445329210A0000504C4C20DD
:10218C004E4F54204C4F434B4544210A0000000055
:10219C00564944454F5F494E505554004F55545085
:1021AC0055545F464F524D4154000000504F4C4126
:1021BC005249545900000000564943202863757356
:1021CC00746F6D290000000048444D495F4D4F4429
:1021DC004500000047435F5041434B45545F454E1B
:1021EC00000000004156495F494E464F4652414D52
:1021FC00450000004156495F41535045435400008F
:10220C004155544F5F434B53554D0000544D44536F
:10221C005F504F5745525F4F4E000000504C4C30B2
:10222C0000000000504C4C5F31000000504C4C5FE3
:10223C0032000000504C4C5F33000000504C4C5F9F
:10224C0034000000504C4C5F35000000504C4C5F8B
:10225C0036000000504C4C5F3700000050525F4D70
:10226C00414E55414C5F583400000000504F5745CB
:10227C00525F5550000000000102030405060708D8
:10228C00090A0B0C0D0E0F100203040506070809B2
:10229C000A0B0C0D0E0F10100000000001020304BD
:1022AC0000000000000000000102030406070809FA
:0422BC001102000803
:0422C000E901000828
:0C22C400010000000400000000127A007D
:0400000508001F854B
:00000001FF
